{
  "contractName": "SolnSquareVerifier",
  "abi": [
    {
      "constant": true,
      "inputs": [
        {
          "name": "interfaceId",
          "type": "bytes4"
        }
      ],
      "name": "supportsInterface",
      "outputs": [
        {
          "name": "",
          "type": "bool"
        }
      ],
      "payable": false,
      "stateMutability": "view",
      "type": "function",
      "signature": "0x01ffc9a7"
    },
    {
      "constant": true,
      "inputs": [
        {
          "name": "tokenId",
          "type": "uint256"
        }
      ],
      "name": "getApproved",
      "outputs": [
        {
          "name": "",
          "type": "address"
        }
      ],
      "payable": false,
      "stateMutability": "view",
      "type": "function",
      "signature": "0x081812fc"
    },
    {
      "constant": false,
      "inputs": [
        {
          "name": "to",
          "type": "address"
        },
        {
          "name": "tokenId",
          "type": "uint256"
        }
      ],
      "name": "approve",
      "outputs": [],
      "payable": false,
      "stateMutability": "nonpayable",
      "type": "function",
      "signature": "0x095ea7b3"
    },
    {
      "constant": false,
      "inputs": [
        {
          "name": "newValue",
          "type": "bool"
        }
      ],
      "name": "setPaused",
      "outputs": [],
      "payable": false,
      "stateMutability": "nonpayable",
      "type": "function",
      "signature": "0x16c38b3c"
    },
    {
      "constant": true,
      "inputs": [],
      "name": "totalSupply",
      "outputs": [
        {
          "name": "",
          "type": "uint256"
        }
      ],
      "payable": false,
      "stateMutability": "view",
      "type": "function",
      "signature": "0x18160ddd"
    },
    {
      "constant": false,
      "inputs": [
        {
          "name": "from",
          "type": "address"
        },
        {
          "name": "to",
          "type": "address"
        },
        {
          "name": "tokenId",
          "type": "uint256"
        }
      ],
      "name": "transferFrom",
      "outputs": [],
      "payable": false,
      "stateMutability": "nonpayable",
      "type": "function",
      "signature": "0x23b872dd"
    },
    {
      "constant": false,
      "inputs": [
        {
          "name": "_myid",
          "type": "bytes32"
        },
        {
          "name": "_result",
          "type": "string"
        }
      ],
      "name": "__callback",
      "outputs": [],
      "payable": false,
      "stateMutability": "nonpayable",
      "type": "function",
      "signature": "0x27dc297e"
    },
    {
      "constant": true,
      "inputs": [
        {
          "name": "owner",
          "type": "address"
        },
        {
          "name": "index",
          "type": "uint256"
        }
      ],
      "name": "tokenOfOwnerByIndex",
      "outputs": [
        {
          "name": "",
          "type": "uint256"
        }
      ],
      "payable": false,
      "stateMutability": "view",
      "type": "function",
      "signature": "0x2f745c59"
    },
    {
      "constant": false,
      "inputs": [
        {
          "name": "_myid",
          "type": "bytes32"
        },
        {
          "name": "_result",
          "type": "string"
        },
        {
          "name": "_proof",
          "type": "bytes"
        }
      ],
      "name": "__callback",
      "outputs": [],
      "payable": false,
      "stateMutability": "nonpayable",
      "type": "function",
      "signature": "0x38bbfa50"
    },
    {
      "constant": false,
      "inputs": [
        {
          "name": "from",
          "type": "address"
        },
        {
          "name": "to",
          "type": "address"
        },
        {
          "name": "tokenId",
          "type": "uint256"
        }
      ],
      "name": "safeTransferFrom",
      "outputs": [],
      "payable": false,
      "stateMutability": "nonpayable",
      "type": "function",
      "signature": "0x42842e0e"
    },
    {
      "constant": true,
      "inputs": [
        {
          "name": "index",
          "type": "uint256"
        }
      ],
      "name": "tokenByIndex",
      "outputs": [
        {
          "name": "",
          "type": "uint256"
        }
      ],
      "payable": false,
      "stateMutability": "view",
      "type": "function",
      "signature": "0x4f6ccce7"
    },
    {
      "constant": true,
      "inputs": [
        {
          "name": "tokenId",
          "type": "uint256"
        }
      ],
      "name": "ownerOf",
      "outputs": [
        {
          "name": "",
          "type": "address"
        }
      ],
      "payable": false,
      "stateMutability": "view",
      "type": "function",
      "signature": "0x6352211e"
    },
    {
      "constant": true,
      "inputs": [
        {
          "name": "owner",
          "type": "address"
        }
      ],
      "name": "balanceOf",
      "outputs": [
        {
          "name": "",
          "type": "uint256"
        }
      ],
      "payable": false,
      "stateMutability": "view",
      "type": "function",
      "signature": "0x70a08231"
    },
    {
      "constant": false,
      "inputs": [],
      "name": "getOwner",
      "outputs": [
        {
          "name": "",
          "type": "address"
        }
      ],
      "payable": false,
      "stateMutability": "nonpayable",
      "type": "function",
      "signature": "0x893d20e8"
    },
    {
      "constant": false,
      "inputs": [
        {
          "name": "to",
          "type": "address"
        },
        {
          "name": "approved",
          "type": "bool"
        }
      ],
      "name": "setApprovalForAll",
      "outputs": [],
      "payable": false,
      "stateMutability": "nonpayable",
      "type": "function",
      "signature": "0xa22cb465"
    },
    {
      "constant": false,
      "inputs": [
        {
          "name": "from",
          "type": "address"
        },
        {
          "name": "to",
          "type": "address"
        },
        {
          "name": "tokenId",
          "type": "uint256"
        },
        {
          "name": "_data",
          "type": "bytes"
        }
      ],
      "name": "safeTransferFrom",
      "outputs": [],
      "payable": false,
      "stateMutability": "nonpayable",
      "type": "function",
      "signature": "0xb88d4fde"
    },
    {
      "constant": true,
      "inputs": [
        {
          "name": "tokenId",
          "type": "uint256"
        }
      ],
      "name": "tokenURI",
      "outputs": [
        {
          "name": "",
          "type": "string"
        }
      ],
      "payable": false,
      "stateMutability": "view",
      "type": "function",
      "signature": "0xc87b56dd"
    },
    {
      "constant": false,
      "inputs": [
        {
          "name": "to",
          "type": "address"
        },
        {
          "name": "tokenId",
          "type": "uint256"
        },
        {
          "name": "tokenURI",
          "type": "string"
        }
      ],
      "name": "mint",
      "outputs": [
        {
          "name": "",
          "type": "bool"
        }
      ],
      "payable": false,
      "stateMutability": "nonpayable",
      "type": "function",
      "signature": "0xd3fc9864"
    },
    {
      "constant": true,
      "inputs": [
        {
          "name": "owner",
          "type": "address"
        },
        {
          "name": "operator",
          "type": "address"
        }
      ],
      "name": "isApprovedForAll",
      "outputs": [
        {
          "name": "",
          "type": "bool"
        }
      ],
      "payable": false,
      "stateMutability": "view",
      "type": "function",
      "signature": "0xe985e9c5"
    },
    {
      "constant": false,
      "inputs": [
        {
          "name": "newOwner",
          "type": "address"
        }
      ],
      "name": "transferOwnership",
      "outputs": [],
      "payable": false,
      "stateMutability": "nonpayable",
      "type": "function",
      "signature": "0xf2fde38b"
    },
    {
      "inputs": [
        {
          "name": "verifierContractAddress",
          "type": "address"
        }
      ],
      "payable": false,
      "stateMutability": "nonpayable",
      "type": "constructor",
      "signature": "constructor"
    },
    {
      "anonymous": false,
      "inputs": [
        {
          "indexed": false,
          "name": "index",
          "type": "uint256"
        },
        {
          "indexed": false,
          "name": "solAddress",
          "type": "address"
        }
      ],
      "name": "solutionAdded",
      "type": "event",
      "signature": "0x529aebee0fa53cdfb493ac455bd2a7b5924a502f5e34b85b84ebda0e84e62cb2"
    },
    {
      "anonymous": false,
      "inputs": [
        {
          "indexed": true,
          "name": "from",
          "type": "address"
        },
        {
          "indexed": true,
          "name": "to",
          "type": "address"
        },
        {
          "indexed": true,
          "name": "tokenId",
          "type": "uint256"
        }
      ],
      "name": "Transfer",
      "type": "event",
      "signature": "0xddf252ad1be2c89b69c2b068fc378daa952ba7f163c4a11628f55a4df523b3ef"
    },
    {
      "anonymous": false,
      "inputs": [
        {
          "indexed": true,
          "name": "owner",
          "type": "address"
        },
        {
          "indexed": true,
          "name": "approved",
          "type": "address"
        },
        {
          "indexed": true,
          "name": "tokenId",
          "type": "uint256"
        }
      ],
      "name": "Approval",
      "type": "event",
      "signature": "0x8c5be1e5ebec7d5bd14f71427d1e84f3dd0314c0f7b2291e5b200ac8c7c3b925"
    },
    {
      "anonymous": false,
      "inputs": [
        {
          "indexed": true,
          "name": "owner",
          "type": "address"
        },
        {
          "indexed": true,
          "name": "operator",
          "type": "address"
        },
        {
          "indexed": false,
          "name": "approved",
          "type": "bool"
        }
      ],
      "name": "ApprovalForAll",
      "type": "event",
      "signature": "0x17307eab39ab6107e8899845ad3d59bd9653f200f220920489ca2b5937696c31"
    },
    {
      "anonymous": false,
      "inputs": [
        {
          "indexed": false,
          "name": "trigger",
          "type": "address"
        }
      ],
      "name": "Paused",
      "type": "event",
      "signature": "0x62e78cea01bee320cd4e420270b5ea74000d11b0c9f74754ebdbfc544b05a258"
    },
    {
      "anonymous": false,
      "inputs": [
        {
          "indexed": false,
          "name": "trigger",
          "type": "address"
        }
      ],
      "name": "Unpaused",
      "type": "event",
      "signature": "0x5db9ee0a495bf2e6ff9c91a7834c1ba4fdd244a5e8aa4e537bd38aeae4b073aa"
    },
    {
      "anonymous": false,
      "inputs": [
        {
          "indexed": false,
          "name": "newOwner",
          "type": "address"
        }
      ],
      "name": "OwnershipTransfered",
      "type": "event",
      "signature": "0x9736aeb40a8f30a5c076a9897428fdf7ec0e909c96dce63533664c9b5c835da6"
    },
    {
      "constant": false,
      "inputs": [
        {
          "name": "_index",
          "type": "uint256"
        },
        {
          "name": "_solAddress",
          "type": "address"
        },
        {
          "name": "_solHash",
          "type": "bytes32"
        }
      ],
      "name": "addSolution",
      "outputs": [],
      "payable": false,
      "stateMutability": "nonpayable",
      "type": "function",
      "signature": "0xb3b72007"
    },
    {
      "constant": false,
      "inputs": [
        {
          "name": "_address",
          "type": "address"
        },
        {
          "name": "_index",
          "type": "uint256"
        },
        {
          "name": "a",
          "type": "uint256[2]"
        },
        {
          "name": "a_p",
          "type": "uint256[2]"
        },
        {
          "name": "b",
          "type": "uint256[2][2]"
        },
        {
          "name": "b_p",
          "type": "uint256[2]"
        },
        {
          "name": "c",
          "type": "uint256[2]"
        },
        {
          "name": "c_p",
          "type": "uint256[2]"
        },
        {
          "name": "h",
          "type": "uint256[2]"
        },
        {
          "name": "k",
          "type": "uint256[2]"
        },
        {
          "name": "input",
          "type": "uint256[2]"
        }
      ],
      "name": "mintNewNFT",
      "outputs": [
        {
          "name": "",
          "type": "bool"
        }
      ],
      "payable": false,
      "stateMutability": "nonpayable",
      "type": "function",
      "signature": "0xc9831ab4"
    }
  ],
  "bytecode": "0x60806040523480156200001157600080fd5b5060405160208062003a53833981018060405260208110156200003357600080fd5b81019080805190602001909291905050506040805190810160405280600d81526020017f6f6d617220636f6e7472616374000000000000000000000000000000000000008152506040805190810160405280600281526020017f4f4d000000000000000000000000000000000000000000000000000000000000815250606060405190810160405280603f815260200162003a14603f9139336000806101000a81548173ffffffffffffffffffffffffffffffffffffffff021916908373ffffffffffffffffffffffffffffffffffffffff1602179055507f9736aeb40a8f30a5c076a9897428fdf7ec0e909c96dce63533664c9b5c835da633604051808273ffffffffffffffffffffffffffffffffffffffff1673ffffffffffffffffffffffffffffffffffffffff16815260200191505060405180910390a160008060146101000a81548160ff021916908315150217905550620001c56301ffc9a77c01000000000000000000000000000000000000000000000000000000000262000312640100000000026401000000009004565b620002026380ac58cd7c01000000000000000000000000000000000000000000000000000000000262000312640100000000026401000000009004565b6200023f63780e9d637c01000000000000000000000000000000000000000000000000000000000262000312640100000000026401000000009004565b82600f908051906020019062000257929190620003d0565b50816010908051906020019062000270929190620003d0565b50806011908051906020019062000289929190620003d0565b50620002c7635b5e139f7c01000000000000000000000000000000000000000000000000000000000262000312640100000000026401000000009004565b50505080601460006101000a81548173ffffffffffffffffffffffffffffffffffffffff021916908373ffffffffffffffffffffffffffffffffffffffff160217905550506200047f565b63ffffffff7c010000000000000000000000000000000000000000000000000000000002817bffffffffffffffffffffffffffffffffffffffffffffffffffffffff1916141515156200036457600080fd5b6001806000837bffffffffffffffffffffffffffffffffffffffffffffffffffffffff19167bffffffffffffffffffffffffffffffffffffffffffffffffffffffff1916815260200190815260200160002060006101000a81548160ff02191690831515021790555050565b828054600181600116156101000203166002900490600052602060002090601f016020900481019282601f106200041357805160ff191683800117855562000444565b8280016001018555821562000444579182015b828111156200044357825182559160200191906001019062000426565b5b50905062000453919062000457565b5090565b6200047c91905b80821115620004785760008160009055506001016200045e565b5090565b90565b613585806200048f6000396000f3fe608060405234801561001057600080fd5b506004361061015f576000357c0100000000000000000000000000000000000000000000000000000000900480636352211e116100d5578063b88d4fde11610099578063b88d4fde1461082c578063c87b56dd14610931578063c9831ab4146109d8578063d3fc986414610cc0578063e985e9c514610dbd578063f2fde38b14610e395761015f565b80636352211e1461067457806370a08231146106e2578063893d20e81461073a578063a22cb46514610784578063b3b72007146107d45761015f565b806323b872dd1161012757806323b872dd146102d357806327dc297e146103415780632f745c591461040657806338bbfa501461046857806342842e0e146105c45780634f6ccce7146106325761015f565b806301ffc9a714610164578063081812fc146101c9578063095ea7b31461023757806316c38b3c1461028557806318160ddd146102b5575b600080fd5b6101af6004803603602081101561017a57600080fd5b8101908080357bffffffffffffffffffffffffffffffffffffffffffffffffffffffff19169060200190929190505050610e7d565b604051808215151515815260200191505060405180910390f35b6101f5600480360360208110156101df57600080fd5b8101908080359060200190929190505050610ee5565b604051808273ffffffffffffffffffffffffffffffffffffffff1673ffffffffffffffffffffffffffffffffffffffff16815260200191505060405180910390f35b6102836004803603604081101561024d57600080fd5b81019080803573ffffffffffffffffffffffffffffffffffffffff16906020019092919080359060200190929190505050610f22565b005b6102b36004803603602081101561029b57600080fd5b81019080803515159060200190929190505050611191565b005b6102bd611255565b6040518082815260200191505060405180910390f35b61033f600480360360608110156102e957600080fd5b81019080803573ffffffffffffffffffffffffffffffffffffffff169060200190929190803573ffffffffffffffffffffffffffffffffffffffff16906020019092919080359060200190929190505050611262565b005b6104046004803603604081101561035757600080fd5b81019080803590602001909291908035906020019064010000000081111561037e57600080fd5b82018360208201111561039057600080fd5b803590602001918460018302840111640100000000831117156103b257600080fd5b91908080601f016020809104026020016040519081016040528093929190818152602001838380828437600081840152601f19601f820116905080830192505050505050509192919290505050611287565b005b6104526004803603604081101561041c57600080fd5b81019080803573ffffffffffffffffffffffffffffffffffffffff169060200190929190803590602001909291905050506112ca565b6040518082815260200191505060405180910390f35b6105c26004803603606081101561047e57600080fd5b8101908080359060200190929190803590602001906401000000008111156104a557600080fd5b8201836020820111156104b757600080fd5b803590602001918460018302840111640100000000831117156104d957600080fd5b91908080601f016020809104026020016040519081016040528093929190818152602001838380828437600081840152601f19601f8201169050808301925050505050505091929192908035906020019064010000000081111561053c57600080fd5b82018360208201111561054e57600080fd5b8035906020019184600183028401116401000000008311171561057057600080fd5b91908080601f016020809104026020016040519081016040528093929190818152602001838380828437600081840152601f19601f820116905080830192505050505050509192919290505050611341565b005b610630600480360360608110156105da57600080fd5b81019080803573ffffffffffffffffffffffffffffffffffffffff169060200190929190803573ffffffffffffffffffffffffffffffffffffffff16906020019092919080359060200190929190505050611346565b005b61065e6004803603602081101561064857600080fd5b8101908080359060200190929190505050611367565b6040518082815260200191505060405180910390f35b6106a06004803603602081101561068a57600080fd5b810190808035906020019092919050505061139f565b604051808273ffffffffffffffffffffffffffffffffffffffff1673ffffffffffffffffffffffffffffffffffffffff16815260200191505060405180910390f35b610724600480360360208110156106f857600080fd5b81019080803573ffffffffffffffffffffffffffffffffffffffff1690602001909291905050506113dc565b6040518082815260200191505060405180910390f35b61074261142c565b604051808273ffffffffffffffffffffffffffffffffffffffff1673ffffffffffffffffffffffffffffffffffffffff16815260200191505060405180910390f35b6107d26004803603604081101561079a57600080fd5b81019080803573ffffffffffffffffffffffffffffffffffffffff169060200190929190803515159060200190929190505050611455565b005b61082a600480360360608110156107ea57600080fd5b8101908080359060200190929190803573ffffffffffffffffffffffffffffffffffffffff16906020019092919080359060200190929190505050611591565b005b61092f6004803603608081101561084257600080fd5b81019080803573ffffffffffffffffffffffffffffffffffffffff169060200190929190803573ffffffffffffffffffffffffffffffffffffffff16906020019092919080359060200190929190803590602001906401000000008111156108a957600080fd5b8201836020820111156108bb57600080fd5b803590602001918460018302840111640100000000831117156108dd57600080fd5b91908080601f016020809104026020016040519081016040528093929190818152602001838380828437600081840152601f19601f820116905080830192505050505050509192919290505050611693565b005b61095d6004803603602081101561094757600080fd5b81019080803590602001909291905050506116bb565b6040518080602001828103825283818151815260200191508051906020019080838360005b8381101561099d578082015181840152602081019050610982565b50505050905090810190601f1680156109ca5780820380516001836020036101000a031916815260200191505b509250505060405180910390f35b610ca660048036036102c08110156109ef57600080fd5b81019080803573ffffffffffffffffffffffffffffffffffffffff1690602001909291908035906020019092919080604001906002806020026040519081016040528092919082600260200280828437600081840152601f19601f820116905080830192505050505050919291929080604001906002806020026040519081016040528092919082600260200280828437600081840152601f19601f82011690508083019250505050505091929192908060800190600280602002604051908101604052809291906000905b82821015610b0f578382604002016002806020026040519081016040528092919082600260200280828437600081840152601f19601f82011690508083019250505050505081526020019060010190610abb565b50505050919291929080604001906002806020026040519081016040528092919082600260200280828437600081840152601f19601f820116905080830192505050505050919291929080604001906002806020026040519081016040528092919082600260200280828437600081840152601f19601f820116905080830192505050505050919291929080604001906002806020026040519081016040528092919082600260200280828437600081840152601f19601f820116905080830192505050505050919291929080604001906002806020026040519081016040528092919082600260200280828437600081840152601f19601f820116905080830192505050505050919291929080604001906002806020026040519081016040528092919082600260200280828437600081840152601f19601f820116905080830192505050505050919291929080604001906002806020026040519081016040528092919082600260200280828437600081840152601f19601f8201169050808301925050505050509192919290505050611784565b604051808215151515815260200191505060405180910390f35b610da360048036036060811015610cd657600080fd5b81019080803573ffffffffffffffffffffffffffffffffffffffff1690602001909291908035906020019092919080359060200190640100000000811115610d1d57600080fd5b820183602082011115610d2f57600080fd5b80359060200191846001830284011164010000000083111715610d5157600080fd5b91908080601f016020809104026020016040519081016040528093929190818152602001838380828437600081840152601f19601f820116905080830192505050505050509192919290505050611d95565b604051808215151515815260200191505060405180910390f35b610e1f60048036036040811015610dd357600080fd5b81019080803573ffffffffffffffffffffffffffffffffffffffff169060200190929190803573ffffffffffffffffffffffffffffffffffffffff169060200190929190505050611e5c565b604051808215151515815260200191505060405180910390f35b610e7b60048036036020811015610e4f57600080fd5b81019080803573ffffffffffffffffffffffffffffffffffffffff169060200190929190505050611ef0565b005b600060016000837bffffffffffffffffffffffffffffffffffffffffffffffffffffffff19167bffffffffffffffffffffffffffffffffffffffffffffffffffffffff1916815260200190815260200160002060009054906101000a900460ff169050919050565b60006003600083815260200190815260200160002060009054906101000a900473ffffffffffffffffffffffffffffffffffffffff169050919050565b6002600082815260200190815260200160002060009054906101000a900473ffffffffffffffffffffffffffffffffffffffff1673ffffffffffffffffffffffffffffffffffffffff168273ffffffffffffffffffffffffffffffffffffffff1614151515610fdc576040517f08c379a00000000000000000000000000000000000000000000000000000000081526004018080602001828103825260238152602001806135376023913960400191505060405180910390fd5b610fe461142c565b73ffffffffffffffffffffffffffffffffffffffff163373ffffffffffffffffffffffffffffffffffffffff16148061105657506110556002600083815260200190815260200160002060009054906101000a900473ffffffffffffffffffffffffffffffffffffffff1633611e5c565b5b15156110ad576040517f08c379a000000000000000000000000000000000000000000000000000000000815260040180806020018281038252603481526020018061347d6034913960400191505060405180910390fd5b816003600083815260200190815260200160002060006101000a81548173ffffffffffffffffffffffffffffffffffffffff021916908373ffffffffffffffffffffffffffffffffffffffff160217905550808273ffffffffffffffffffffffffffffffffffffffff166002600084815260200190815260200160002060009054906101000a900473ffffffffffffffffffffffffffffffffffffffff1673ffffffffffffffffffffffffffffffffffffffff167f8c5be1e5ebec7d5bd14f71427d1e84f3dd0314c0f7b2291e5b200ac8c7c3b92560405160405180910390a45050565b6000809054906101000a900473ffffffffffffffffffffffffffffffffffffffff1673ffffffffffffffffffffffffffffffffffffffff163373ffffffffffffffffffffffffffffffffffffffff16141515611238576040517f08c379a000000000000000000000000000000000000000000000000000000000815260040180806020018281038252602a8152602001806134df602a913960400191505060405180910390fd5b80600060146101000a81548160ff02191690831515021790555050565b6000600880549050905090565b61126c3382612079565b151561127757600080fd5b61128283838361210e565b505050565b6112c6828260006040519080825280601f01601f1916602001820160405280156112c05781602001600182028038833980820191505090505b50611341565b5050565b60006112d5836113dc565b821015156112e257600080fd5b600660008473ffffffffffffffffffffffffffffffffffffffff1673ffffffffffffffffffffffffffffffffffffffff1681526020019081526020016000208281548110151561132e57fe5b9060005260206000200154905092915050565b505050565b6113628383836020604051908101604052806000815250611693565b505050565b6000611371611255565b8210151561137e57600080fd5b60088281548110151561138d57fe5b90600052602060002001549050919050565b60006002600083815260200190815260200160002060009054906101000a900473ffffffffffffffffffffffffffffffffffffffff169050919050565b6000611425600460008473ffffffffffffffffffffffffffffffffffffffff1673ffffffffffffffffffffffffffffffffffffffff168152602001908152602001600020612132565b9050919050565b60008060009054906101000a900473ffffffffffffffffffffffffffffffffffffffff16905090565b3373ffffffffffffffffffffffffffffffffffffffff168273ffffffffffffffffffffffffffffffffffffffff161415151561149057600080fd5b80600560003373ffffffffffffffffffffffffffffffffffffffff1673ffffffffffffffffffffffffffffffffffffffff16815260200190815260200160002060008473ffffffffffffffffffffffffffffffffffffffff1673ffffffffffffffffffffffffffffffffffffffff16815260200190815260200160002060006101000a81548160ff0219169083151502179055508173ffffffffffffffffffffffffffffffffffffffff163373ffffffffffffffffffffffffffffffffffffffff167f17307eab39ab6107e8899845ad3d59bd9653f200f220920489ca2b5937696c3183604051808215151515815260200191505060405180910390a35050565b60408051908101604052808481526020018373ffffffffffffffffffffffffffffffffffffffff16815250601360008381526020019081526020016000206000820151816000015560208201518160010160006101000a81548173ffffffffffffffffffffffffffffffffffffffff021916908373ffffffffffffffffffffffffffffffffffffffff1602179055509050507f529aebee0fa53cdfb493ac455bd2a7b5924a502f5e34b85b84ebda0e84e62cb28383604051808381526020018273ffffffffffffffffffffffffffffffffffffffff1673ffffffffffffffffffffffffffffffffffffffff1681526020019250505060405180910390a1505050565b61169e848484611262565b6116aa84848484612140565b15156116b557600080fd5b50505050565b60606116c682612363565b15156116d157600080fd5b601260008381526020019081526020016000208054600181600116156101000203166002900480601f0160208091040260200160405190810160405280929190818152602001828054600181600116156101000203166002900480156117785780601f1061174d57610100808354040283529160200191611778565b820191906000526020600020905b81548152906001019060200180831161175b57829003601f168201915b50505050509050919050565b6000808a8a8a8a8a8a8a8a8a604051602001808a600260200280838360005b838110156117be5780820151818401526020810190506117a3565b5050505090500189600260200280838360005b838110156117ec5780820151818401526020810190506117d1565b505050509050018860026000925b818410156118405782846020020151600260200280838360005b8381101561182f578082015181840152602081019050611814565b5050505090500192600101926117fa565b9250505087600260200280838360005b8381101561186b578082015181840152602081019050611850565b5050505090500186600260200280838360005b8381101561189957808201518184015260208101905061187e565b5050505090500185600260200280838360005b838110156118c75780820151818401526020810190506118ac565b5050505090500184600260200280838360005b838110156118f55780820151818401526020810190506118da565b5050505090500183600260200280838360005b83811015611923578082015181840152602081019050611908565b5050505090500182600260200280838360005b83811015611951578082015181840152602081019050611936565b505050509050019950505050505050505050604051602081830303815290604052805190602001209050600073ffffffffffffffffffffffffffffffffffffffff166013600083815260200190815260200160002060010160009054906101000a900473ffffffffffffffffffffffffffffffffffffffff1673ffffffffffffffffffffffffffffffffffffffff16141515611a38576040517f08c379a000000000000000000000000000000000000000000000000000000000815260040180806020018281038252602e8152602001806134b1602e913960400191505060405180910390fd5b601460009054906101000a900473ffffffffffffffffffffffffffffffffffffffff1673ffffffffffffffffffffffffffffffffffffffff1663fe01ff628c8c8c8c8c8c8c8c8c6040518a63ffffffff167c0100000000000000000000000000000000000000000000000000000000028152600401808a600260200280838360005b83811015611ad5578082015181840152602081019050611aba565b5050505090500189600260200280838360005b83811015611b03578082015181840152602081019050611ae8565b505050509050018860026000925b81841015611b575782846020020151600260200280838360005b83811015611b46578082015181840152602081019050611b2b565b505050509050019260010192611b11565b9250505087600260200280838360005b83811015611b82578082015181840152602081019050611b67565b5050505090500186600260200280838360005b83811015611bb0578082015181840152602081019050611b95565b5050505090500185600260200280838360005b83811015611bde578082015181840152602081019050611bc3565b5050505090500184600260200280838360005b83811015611c0c578082015181840152602081019050611bf1565b5050505090500183600260200280838360005b83811015611c3a578082015181840152602081019050611c1f565b5050505090500182600260200280838360005b83811015611c68578082015181840152602081019050611c4d565b505050509050019950505050505050505050602060405180830381600087803b158015611c9457600080fd5b505af1158015611ca8573d6000803e3d6000fd5b505050506040513d6020811015611cbe57600080fd5b81019080805190602001909291905050501515611d43576040517f08c379a00000000000000000000000000000000000000000000000000000000081526004018080602001828103825260188152602001807f736f6c7574696f6e206973206e6f74207665726966696564000000000000000081525060200191505060405180910390fd5b611d838d8d6040805190810160405280600381526020017f5552490000000000000000000000000000000000000000000000000000000000815250611d95565b9150509b9a5050505050505050505050565b60008060009054906101000a900473ffffffffffffffffffffffffffffffffffffffff1673ffffffffffffffffffffffffffffffffffffffff163373ffffffffffffffffffffffffffffffffffffffff16141515611e3e576040517f08c379a000000000000000000000000000000000000000000000000000000000815260040180806020018281038252602a8152602001806134df602a913960400191505060405180910390fd5b611e4884846123d5565b611e51836123f6565b600190509392505050565b6000600560008473ffffffffffffffffffffffffffffffffffffffff1673ffffffffffffffffffffffffffffffffffffffff16815260200190815260200160002060008373ffffffffffffffffffffffffffffffffffffffff1673ffffffffffffffffffffffffffffffffffffffff16815260200190815260200160002060009054906101000a900460ff16905092915050565b6000809054906101000a900473ffffffffffffffffffffffffffffffffffffffff1673ffffffffffffffffffffffffffffffffffffffff163373ffffffffffffffffffffffffffffffffffffffff16141515611f97576040517f08c379a000000000000000000000000000000000000000000000000000000000815260040180806020018281038252602a8152602001806134df602a913960400191505060405180910390fd5b600073ffffffffffffffffffffffffffffffffffffffff168173ffffffffffffffffffffffffffffffffffffffff1614151515611fd357600080fd5b806000806101000a81548173ffffffffffffffffffffffffffffffffffffffff021916908373ffffffffffffffffffffffffffffffffffffffff1602179055507f9736aeb40a8f30a5c076a9897428fdf7ec0e909c96dce63533664c9b5c835da681604051808273ffffffffffffffffffffffffffffffffffffffff1673ffffffffffffffffffffffffffffffffffffffff16815260200191505060405180910390a150565b6000806120858361139f565b90508073ffffffffffffffffffffffffffffffffffffffff168473ffffffffffffffffffffffffffffffffffffffff1614806120f457508373ffffffffffffffffffffffffffffffffffffffff166120dc84610ee5565b73ffffffffffffffffffffffffffffffffffffffff16145b8061210557506121048185611e5c565b5b91505092915050565b612119838383612549565b61212383826127f0565b61212d8282612994565b505050565b600081600001549050919050565b60006121618473ffffffffffffffffffffffffffffffffffffffff16612a5b565b1515612170576001905061235b565b60008473ffffffffffffffffffffffffffffffffffffffff1663150b7a02338887876040518563ffffffff167c0100000000000000000000000000000000000000000000000000000000028152600401808573ffffffffffffffffffffffffffffffffffffffff1673ffffffffffffffffffffffffffffffffffffffff1681526020018473ffffffffffffffffffffffffffffffffffffffff1673ffffffffffffffffffffffffffffffffffffffff16815260200183815260200180602001828103825283818151815260200191508051906020019080838360005b8381101561226757808201518184015260208101905061224c565b50505050905090810190601f1680156122945780820380516001836020036101000a031916815260200191505b5095505050505050602060405180830381600087803b1580156122b657600080fd5b505af11580156122ca573d6000803e3d6000fd5b505050506040513d60208110156122e057600080fd5b8101908080519060200190929190505050905063150b7a027c0100000000000000000000000000000000000000000000000000000000027bffffffffffffffffffffffffffffffffffffffffffffffffffffffff1916817bffffffffffffffffffffffffffffffffffffffffffffffffffffffff1916149150505b949350505050565b6000806002600084815260200190815260200160002060009054906101000a900473ffffffffffffffffffffffffffffffffffffffff169050600073ffffffffffffffffffffffffffffffffffffffff168173ffffffffffffffffffffffffffffffffffffffff161415915050919050565b6123df8282612a6e565b6123e98282612994565b6123f281612c89565b5050565b6123ff81612363565b1515612473576040517f08c379a00000000000000000000000000000000000000000000000000000000081526004018080602001828103825260168152602001807f746f6b656e20696420646f656e7327742065786973740000000000000000000081525060200191505060405180910390fd5b61251f60118054600181600116156101000203166002900480601f01602080910402602001604051908101604052809291908181526020018280546001816001161561010002031660029004801561250c5780601f106124e15761010080835404028352916020019161250c565b820191906000526020600020905b8154815290600101906020018083116124ef57829003601f168201915b505050505061251a83612cd5565b612e2e565b6012600083815260200190815260200160002090805190602001906125459291906133ab565b5050565b6002600082815260200190815260200160002060009054906101000a900473ffffffffffffffffffffffffffffffffffffffff1673ffffffffffffffffffffffffffffffffffffffff168373ffffffffffffffffffffffffffffffffffffffff16141515612602576040517f08c379a000000000000000000000000000000000000000000000000000000000815260040180806020018281038252602e815260200180613509602e913960400191505060405180910390fd5b600073ffffffffffffffffffffffffffffffffffffffff168273ffffffffffffffffffffffffffffffffffffffff16141515156126a7576040517f08c379a000000000000000000000000000000000000000000000000000000000815260040180806020018281038252601b8152602001807f74686520746f2061646472657373206973206e6f742076616c6964000000000081525060200191505060405180910390fd5b6126b081612e75565b6126f7600460008473ffffffffffffffffffffffffffffffffffffffff1673ffffffffffffffffffffffffffffffffffffffff168152602001908152602001600020612f35565b61273e600460008573ffffffffffffffffffffffffffffffffffffffff1673ffffffffffffffffffffffffffffffffffffffff168152602001908152602001600020612f4b565b816002600083815260200190815260200160002060006101000a81548173ffffffffffffffffffffffffffffffffffffffff021916908373ffffffffffffffffffffffffffffffffffffffff160217905550808273ffffffffffffffffffffffffffffffffffffffff168473ffffffffffffffffffffffffffffffffffffffff167fddf252ad1be2c89b69c2b068fc378daa952ba7f163c4a11628f55a4df523b3ef60405160405180910390a4505050565b60006128486001600660008673ffffffffffffffffffffffffffffffffffffffff1673ffffffffffffffffffffffffffffffffffffffff16815260200190815260200160002080549050612f6e90919063ffffffff16565b9050600060076000848152602001908152602001600020549050818114151561293b576000600660008673ffffffffffffffffffffffffffffffffffffffff1673ffffffffffffffffffffffffffffffffffffffff168152602001908152602001600020838154811015156128b957fe5b9060005260206000200154905080600660008773ffffffffffffffffffffffffffffffffffffffff1673ffffffffffffffffffffffffffffffffffffffff1681526020019081526020016000208381548110151561291357fe5b9060005260206000200181905550816007600083815260200190815260200160002081905550505b600660008573ffffffffffffffffffffffffffffffffffffffff1673ffffffffffffffffffffffffffffffffffffffff16815260200190815260200160002080548091906001900361298d919061342b565b5050505050565b600660008373ffffffffffffffffffffffffffffffffffffffff1673ffffffffffffffffffffffffffffffffffffffff168152602001908152602001600020805490506007600083815260200190815260200160002081905550600660008373ffffffffffffffffffffffffffffffffffffffff1673ffffffffffffffffffffffffffffffffffffffff1681526020019081526020016000208190806001815401808255809150509060018203906000526020600020016000909192909190915055505050565b600080823b905060008111915050919050565b600073ffffffffffffffffffffffffffffffffffffffff168273ffffffffffffffffffffffffffffffffffffffff1614151515612b13576040517f08c379a00000000000000000000000000000000000000000000000000000000081526004018080602001828103825260128152602001807f6164647265737320697320696e76616c6964000000000000000000000000000081525060200191505060405180910390fd5b612b1c81612363565b151515612b91576040517f08c379a00000000000000000000000000000000000000000000000000000000081526004018080602001828103825260158152602001807f746f6b656e496420616c7265616479206578697374000000000000000000000081525060200191505060405180910390fd5b816002600083815260200190815260200160002060006101000a81548173ffffffffffffffffffffffffffffffffffffffff021916908373ffffffffffffffffffffffffffffffffffffffff160217905550612c2a600460008473ffffffffffffffffffffffffffffffffffffffff1673ffffffffffffffffffffffffffffffffffffffff168152602001908152602001600020612f35565b808273ffffffffffffffffffffffffffffffffffffffff163373ffffffffffffffffffffffffffffffffffffffff167fddf252ad1be2c89b69c2b068fc378daa952ba7f163c4a11628f55a4df523b3ef60405160405180910390a45050565b6008805490506009600083815260200190815260200160002081905550600881908060018154018082558091505090600182039060005260206000200160009091929091909150555050565b60606000821415612d1d576040805190810160405280600181526020017f30000000000000000000000000000000000000000000000000000000000000008152509050612e29565b600082905060005b600082141515612d4b578080600101915050600a82811515612d4357fe5b049150612d25565b6060816040519080825280601f01601f191660200182016040528015612d805781602001600182028038833980820191505090505b50905060006001830390505b600086141515612e2157600a86811515612da257fe5b066030017f010000000000000000000000000000000000000000000000000000000000000002828280600190039350815181101515612ddd57fe5b9060200101907effffffffffffffffffffffffffffffffffffffffffffffffffffffffffffff1916908160001a905350600a86811515612e1957fe5b049550612d8c565b819450505050505b919050565b6060612e6d8383602060405190810160405280600081525060206040519081016040528060008152506020604051908101604052806000815250612f90565b905092915050565b600073ffffffffffffffffffffffffffffffffffffffff166003600083815260200190815260200160002060009054906101000a900473ffffffffffffffffffffffffffffffffffffffff1673ffffffffffffffffffffffffffffffffffffffff16141515612f325760006003600083815260200190815260200160002060006101000a81548173ffffffffffffffffffffffffffffffffffffffff021916908373ffffffffffffffffffffffffffffffffffffffff1602179055505b50565b6001816000016000828254019250508190555050565b612f6360018260000154612f6e90919063ffffffff16565b816000018190555050565b6000828211151515612f7f57600080fd5b600082840390508091505092915050565b6060808690506060869050606086905060608690506060869050606081518351855187518951010101016040519080825280601f01601f191660200182016040528015612fec5781602001600182028038833980820191505090505b509050606081905060008090506000809050600090505b88518110156130b657888181518110151561301a57fe5b9060200101517f010000000000000000000000000000000000000000000000000000000000000090047f010000000000000000000000000000000000000000000000000000000000000002838380600101945081518110151561307957fe5b9060200101907effffffffffffffffffffffffffffffffffffffffffffffffffffffffffffff1916908160001a9053508080600101915050613003565b600090505b875181101561316e5787818151811015156130d257fe5b9060200101517f010000000000000000000000000000000000000000000000000000000000000090047f010000000000000000000000000000000000000000000000000000000000000002838380600101945081518110151561313157fe5b9060200101907effffffffffffffffffffffffffffffffffffffffffffffffffffffffffffff1916908160001a90535080806001019150506130bb565b600090505b865181101561322657868181518110151561318a57fe5b9060200101517f010000000000000000000000000000000000000000000000000000000000000090047f01000000000000000000000000000000000000000000000000000000000000000283838060010194508151811015156131e957fe5b9060200101907effffffffffffffffffffffffffffffffffffffffffffffffffffffffffffff1916908160001a9053508080600101915050613173565b600090505b85518110156132de57858181518110151561324257fe5b9060200101517f010000000000000000000000000000000000000000000000000000000000000090047f01000000000000000000000000000000000000000000000000000000000000000283838060010194508151811015156132a157fe5b9060200101907effffffffffffffffffffffffffffffffffffffffffffffffffffffffffffff1916908160001a905350808060010191505061322b565b600090505b84518110156133965784818151811015156132fa57fe5b9060200101517f010000000000000000000000000000000000000000000000000000000000000090047f010000000000000000000000000000000000000000000000000000000000000002838380600101945081518110151561335957fe5b9060200101907effffffffffffffffffffffffffffffffffffffffffffffffffffffffffffff1916908160001a90535080806001019150506132e3565b82995050505050505050505095945050505050565b828054600181600116156101000203166002900490600052602060002090601f016020900481019282601f106133ec57805160ff191683800117855561341a565b8280016001018555821561341a579182015b828111156134195782518255916020019190600101906133fe565b5b5090506134279190613457565b5090565b815481835581811115613452578183600052602060002091820191016134519190613457565b5b505050565b61347991905b8082111561347557600081600090555060010161345d565b5090565b9056fe6d73672e73656e646572206973206e6f742074686520636f6e7472616374206f776e6572206f72206e6f7420617070726f766564736f6c7574696f6e206973206e6f7420756e6971756520697420616c7265616479206578697374206265666f72656f6e6c7920636f6e7472616374206f776e65722063616e2063616c6c20746869732066756e6374696f6e7468652066726f6d2061646472657373206973206e6f7420746865206f776e6572206f662074686520746f6b656e796f752063616e206e6f7420617070726f766520796f7572206f776e20746f6b656e73a165627a7a7230582052c0ab1d450a4b5e38cb1f995a9924857018e7666079c268ddd3422b673926e7002968747470733a2f2f73332d75732d776573742d322e616d617a6f6e6177732e636f6d2f756461636974792d626c6f636b636861696e2f63617073746f6e652f",
  "source": "pragma solidity >=0.4.21 <0.6.0;\n\n// TODO define a contract call to the zokrates generated solidity contract <Verifier> or <renamedVerifier>\n\nimport \"./verifier.sol\";\nimport \"./ERC721Mintable.sol\";\n\n// TODO define another contract named SolnSquareVerifier that inherits from your ERC721Mintable class\n\ncontract SolnSquareVerifier is omarContract {\n\n// TODO define a solutions struct that can hold an index & an address\nstruct solution {\n    uint256 index;\n    address solAddress;\n}\n// TODO define an array of the above struct\n// no need to use the array as stated here https://medium.com/@andresaaap/capstone-real-estate-marketplace-project-faq-udacity-blockchain-69fe13b4c14e\n\n// TODO define a mapping to store unique solutions submitted\n\nmapping(bytes32 => solution) private solutions;\n\n// TODO Create an event to emit when a solution is added\n\nevent solutionAdded(uint256 index,address solAddress);\n\n// TODO Create a function to add the solutions to the array and emit the event\n\nfunction addSolution (uint256 _index ,address _solAddress, bytes32 _solHash) public{\n    solutions[_solHash] = solution({\n        index: _index ,\n        solAddress: _solAddress\n    });\n    emit solutionAdded(_index,_solAddress);\n}\nVerifier verifierContract;\nconstructor(address verifierContractAddress) public{\n    verifierContract = Verifier(verifierContractAddress);\n}\n// TODO Create a function to mint new NFT only after the solution has been verified\n\n//  - make sure you handle metadata as well as tokenSuplly\nfunction mintNewNFT\n                    (\n                    address _address , \n                    uint256 _index,\n                    uint[2] memory a,\n                    uint[2] memory a_p,\n                    uint[2][2] memory b,\n                    uint[2] memory b_p,\n                    uint[2] memory c,\n                    uint[2] memory c_p,\n                    uint[2] memory h,\n                    uint[2] memory k,\n                    uint[2] memory input\n                    ) public returns(bool){\n\n                    bytes32 solHash = keccak256(abi.encodePacked(a, a_p, b, b_p, c, c_p, h, k, input));\n                    //  - make sure the solution is unique (has not been used before)\n                    require(solutions[solHash].solAddress == address(0), \"solution is not unique it already exist before\");\n                    require(verifierContract.verifyTx(a, a_p, b, b_p, c, c_p, h, k, input), \"solution is not verified\");     \n                    return super.mint(_address, _index, \"URI\");\n\n                    }\n}\n\n\n  \n\n\n\n\n\n\n\n\n\n\n\n\n\n\n\n\n\n\n\n\n\n\n\n\n\n\n",
  "sourcePath": "/Users/Ayman/Documents/GitHub/blockchain-nd-project10-capstone/Blockchain-Capstone-master/eth-contracts/contracts/SolnSquareVerifier.sol",
  "compiler": {
    "name": "solc",
    "version": "0.5.2+commit.1df8f40c.Emscripten.clang"
  },
  "schemaVersion": "3.0.8",
  "updatedAt": "2019-04-29T21:18:13.346Z",
  "devdoc": {
    "methods": {
      "isApprovedForAll(address,address)": {
        "details": "Tells whether an operator is approved by a given owner",
        "params": {
          "operator": "operator address which you want to query the approval of",
          "owner": "owner address which you want to query the approval of"
        },
        "return": "bool whether the given operator is approved by the given owner"
      },
      "setApprovalForAll(address,bool)": {
        "details": "Sets or unsets the approval of a given operator An operator is allowed to transfer all tokens of the sender on their behalf",
        "params": {
          "approved": "representing the status of the approval to be set",
          "to": "operator address to set the approval"
        }
      },
      "supportsInterface(bytes4)": {
        "details": "implement supportsInterface(bytes4) using a lookup table"
      },
      "tokenByIndex(uint256)": {
        "details": "Gets the token ID at a given index of all the tokens in this contract Reverts if the index is greater or equal to the total number of tokens",
        "params": {
          "index": "uint256 representing the index to be accessed of the tokens list"
        },
        "return": "uint256 token ID at the given index of the tokens list"
      },
      "tokenOfOwnerByIndex(address,uint256)": {
        "details": "Gets the token ID at a given index of the tokens list of the requested owner",
        "params": {
          "index": "uint256 representing the index to be accessed of the requested tokens list",
          "owner": "address owning the tokens list to be accessed"
        },
        "return": "uint256 token ID at the given index of the tokens list owned by the requested address"
      },
      "totalSupply()": {
        "details": "Gets the total amount of tokens stored by the contract",
        "return": "uint256 representing the total amount of tokens"
      }
    }
  },
  "userdoc": {
    "methods": {}
  }
}