{
  "contractName": "SolnSquareVerifier",
  "abi": [
    {
      "constant": true,
      "inputs": [
        {
          "name": "interfaceId",
          "type": "bytes4"
        }
      ],
      "name": "supportsInterface",
      "outputs": [
        {
          "name": "",
          "type": "bool"
        }
      ],
      "payable": false,
      "stateMutability": "view",
      "type": "function",
      "signature": "0x01ffc9a7"
    },
    {
      "constant": true,
      "inputs": [],
      "name": "name",
      "outputs": [
        {
          "name": "",
          "type": "string"
        }
      ],
      "payable": false,
      "stateMutability": "view",
      "type": "function",
      "signature": "0x06fdde03"
    },
    {
      "constant": true,
      "inputs": [
        {
          "name": "tokenId",
          "type": "uint256"
        }
      ],
      "name": "getApproved",
      "outputs": [
        {
          "name": "",
          "type": "address"
        }
      ],
      "payable": false,
      "stateMutability": "view",
      "type": "function",
      "signature": "0x081812fc"
    },
    {
      "constant": false,
      "inputs": [
        {
          "name": "to",
          "type": "address"
        },
        {
          "name": "tokenId",
          "type": "uint256"
        }
      ],
      "name": "approve",
      "outputs": [],
      "payable": false,
      "stateMutability": "nonpayable",
      "type": "function",
      "signature": "0x095ea7b3"
    },
    {
      "constant": false,
      "inputs": [
        {
          "name": "newValue",
          "type": "bool"
        }
      ],
      "name": "setPaused",
      "outputs": [],
      "payable": false,
      "stateMutability": "nonpayable",
      "type": "function",
      "signature": "0x16c38b3c"
    },
    {
      "constant": true,
      "inputs": [],
      "name": "totalSupply",
      "outputs": [
        {
          "name": "",
          "type": "uint256"
        }
      ],
      "payable": false,
      "stateMutability": "view",
      "type": "function",
      "signature": "0x18160ddd"
    },
    {
      "constant": false,
      "inputs": [
        {
          "name": "from",
          "type": "address"
        },
        {
          "name": "to",
          "type": "address"
        },
        {
          "name": "tokenId",
          "type": "uint256"
        }
      ],
      "name": "transferFrom",
      "outputs": [],
      "payable": false,
      "stateMutability": "nonpayable",
      "type": "function",
      "signature": "0x23b872dd"
    },
    {
      "constant": false,
      "inputs": [
        {
          "name": "_myid",
          "type": "bytes32"
        },
        {
          "name": "_result",
          "type": "string"
        }
      ],
      "name": "__callback",
      "outputs": [],
      "payable": false,
      "stateMutability": "nonpayable",
      "type": "function",
      "signature": "0x27dc297e"
    },
    {
      "constant": true,
      "inputs": [
        {
          "name": "owner",
          "type": "address"
        },
        {
          "name": "index",
          "type": "uint256"
        }
      ],
      "name": "tokenOfOwnerByIndex",
      "outputs": [
        {
          "name": "",
          "type": "uint256"
        }
      ],
      "payable": false,
      "stateMutability": "view",
      "type": "function",
      "signature": "0x2f745c59"
    },
    {
      "constant": false,
      "inputs": [
        {
          "name": "_myid",
          "type": "bytes32"
        },
        {
          "name": "_result",
          "type": "string"
        },
        {
          "name": "_proof",
          "type": "bytes"
        }
      ],
      "name": "__callback",
      "outputs": [],
      "payable": false,
      "stateMutability": "nonpayable",
      "type": "function",
      "signature": "0x38bbfa50"
    },
    {
      "constant": false,
      "inputs": [
        {
          "name": "from",
          "type": "address"
        },
        {
          "name": "to",
          "type": "address"
        },
        {
          "name": "tokenId",
          "type": "uint256"
        }
      ],
      "name": "safeTransferFrom",
      "outputs": [],
      "payable": false,
      "stateMutability": "nonpayable",
      "type": "function",
      "signature": "0x42842e0e"
    },
    {
      "constant": true,
      "inputs": [
        {
          "name": "index",
          "type": "uint256"
        }
      ],
      "name": "tokenByIndex",
      "outputs": [
        {
          "name": "",
          "type": "uint256"
        }
      ],
      "payable": false,
      "stateMutability": "view",
      "type": "function",
      "signature": "0x4f6ccce7"
    },
    {
      "constant": true,
      "inputs": [
        {
          "name": "tokenId",
          "type": "uint256"
        }
      ],
      "name": "ownerOf",
      "outputs": [
        {
          "name": "",
          "type": "address"
        }
      ],
      "payable": false,
      "stateMutability": "view",
      "type": "function",
      "signature": "0x6352211e"
    },
    {
      "constant": true,
      "inputs": [
        {
          "name": "owner",
          "type": "address"
        }
      ],
      "name": "balanceOf",
      "outputs": [
        {
          "name": "",
          "type": "uint256"
        }
      ],
      "payable": false,
      "stateMutability": "view",
      "type": "function",
      "signature": "0x70a08231"
    },
    {
      "constant": false,
      "inputs": [],
      "name": "getOwner",
      "outputs": [
        {
          "name": "",
          "type": "address"
        }
      ],
      "payable": false,
      "stateMutability": "nonpayable",
      "type": "function",
      "signature": "0x893d20e8"
    },
    {
      "constant": true,
      "inputs": [],
      "name": "symbol",
      "outputs": [
        {
          "name": "",
          "type": "string"
        }
      ],
      "payable": false,
      "stateMutability": "view",
      "type": "function",
      "signature": "0x95d89b41"
    },
    {
      "constant": false,
      "inputs": [
        {
          "name": "to",
          "type": "address"
        },
        {
          "name": "approved",
          "type": "bool"
        }
      ],
      "name": "setApprovalForAll",
      "outputs": [],
      "payable": false,
      "stateMutability": "nonpayable",
      "type": "function",
      "signature": "0xa22cb465"
    },
    {
      "constant": false,
      "inputs": [
        {
          "name": "from",
          "type": "address"
        },
        {
          "name": "to",
          "type": "address"
        },
        {
          "name": "tokenId",
          "type": "uint256"
        },
        {
          "name": "_data",
          "type": "bytes"
        }
      ],
      "name": "safeTransferFrom",
      "outputs": [],
      "payable": false,
      "stateMutability": "nonpayable",
      "type": "function",
      "signature": "0xb88d4fde"
    },
    {
      "constant": true,
      "inputs": [
        {
          "name": "tokenId",
          "type": "uint256"
        }
      ],
      "name": "tokenURI",
      "outputs": [
        {
          "name": "",
          "type": "string"
        }
      ],
      "payable": false,
      "stateMutability": "view",
      "type": "function",
      "signature": "0xc87b56dd"
    },
    {
      "constant": false,
      "inputs": [
        {
          "name": "to",
          "type": "address"
        },
        {
          "name": "tokenId",
          "type": "uint256"
        },
        {
          "name": "tokenURI",
          "type": "string"
        }
      ],
      "name": "mint",
      "outputs": [
        {
          "name": "",
          "type": "bool"
        }
      ],
      "payable": false,
      "stateMutability": "nonpayable",
      "type": "function",
      "signature": "0xd3fc9864"
    },
    {
      "constant": true,
      "inputs": [],
      "name": "baseTokenURI",
      "outputs": [
        {
          "name": "",
          "type": "string"
        }
      ],
      "payable": false,
      "stateMutability": "view",
      "type": "function",
      "signature": "0xd547cfb7"
    },
    {
      "constant": true,
      "inputs": [
        {
          "name": "owner",
          "type": "address"
        },
        {
          "name": "operator",
          "type": "address"
        }
      ],
      "name": "isApprovedForAll",
      "outputs": [
        {
          "name": "",
          "type": "bool"
        }
      ],
      "payable": false,
      "stateMutability": "view",
      "type": "function",
      "signature": "0xe985e9c5"
    },
    {
      "constant": false,
      "inputs": [
        {
          "name": "newOwner",
          "type": "address"
        }
      ],
      "name": "transferOwnership",
      "outputs": [],
      "payable": false,
      "stateMutability": "nonpayable",
      "type": "function",
      "signature": "0xf2fde38b"
    },
    {
      "inputs": [
        {
          "name": "verifierContractAddress",
          "type": "address"
        }
      ],
      "payable": false,
      "stateMutability": "nonpayable",
      "type": "constructor",
      "signature": "constructor"
    },
    {
      "anonymous": false,
      "inputs": [
        {
          "indexed": false,
          "name": "index",
          "type": "uint256"
        },
        {
          "indexed": false,
          "name": "solAddress",
          "type": "address"
        }
      ],
      "name": "solutionAdded",
      "type": "event",
      "signature": "0x529aebee0fa53cdfb493ac455bd2a7b5924a502f5e34b85b84ebda0e84e62cb2"
    },
    {
      "anonymous": false,
      "inputs": [
        {
          "indexed": true,
          "name": "from",
          "type": "address"
        },
        {
          "indexed": true,
          "name": "to",
          "type": "address"
        },
        {
          "indexed": true,
          "name": "tokenId",
          "type": "uint256"
        }
      ],
      "name": "Transfer",
      "type": "event",
      "signature": "0xddf252ad1be2c89b69c2b068fc378daa952ba7f163c4a11628f55a4df523b3ef"
    },
    {
      "anonymous": false,
      "inputs": [
        {
          "indexed": true,
          "name": "owner",
          "type": "address"
        },
        {
          "indexed": true,
          "name": "approved",
          "type": "address"
        },
        {
          "indexed": true,
          "name": "tokenId",
          "type": "uint256"
        }
      ],
      "name": "Approval",
      "type": "event",
      "signature": "0x8c5be1e5ebec7d5bd14f71427d1e84f3dd0314c0f7b2291e5b200ac8c7c3b925"
    },
    {
      "anonymous": false,
      "inputs": [
        {
          "indexed": true,
          "name": "owner",
          "type": "address"
        },
        {
          "indexed": true,
          "name": "operator",
          "type": "address"
        },
        {
          "indexed": false,
          "name": "approved",
          "type": "bool"
        }
      ],
      "name": "ApprovalForAll",
      "type": "event",
      "signature": "0x17307eab39ab6107e8899845ad3d59bd9653f200f220920489ca2b5937696c31"
    },
    {
      "anonymous": false,
      "inputs": [
        {
          "indexed": false,
          "name": "trigger",
          "type": "address"
        }
      ],
      "name": "Paused",
      "type": "event",
      "signature": "0x62e78cea01bee320cd4e420270b5ea74000d11b0c9f74754ebdbfc544b05a258"
    },
    {
      "anonymous": false,
      "inputs": [
        {
          "indexed": false,
          "name": "trigger",
          "type": "address"
        }
      ],
      "name": "Unpaused",
      "type": "event",
      "signature": "0x5db9ee0a495bf2e6ff9c91a7834c1ba4fdd244a5e8aa4e537bd38aeae4b073aa"
    },
    {
      "anonymous": false,
      "inputs": [
        {
          "indexed": false,
          "name": "newOwner",
          "type": "address"
        }
      ],
      "name": "OwnershipTransfered",
      "type": "event",
      "signature": "0x9736aeb40a8f30a5c076a9897428fdf7ec0e909c96dce63533664c9b5c835da6"
    },
    {
      "constant": false,
      "inputs": [
        {
          "name": "_index",
          "type": "uint256"
        },
        {
          "name": "_solAddress",
          "type": "address"
        },
        {
          "name": "_solHash",
          "type": "bytes32"
        }
      ],
      "name": "addSolution",
      "outputs": [],
      "payable": false,
      "stateMutability": "nonpayable",
      "type": "function",
      "signature": "0xb3b72007"
    },
    {
      "constant": false,
      "inputs": [
        {
          "name": "_address",
          "type": "address"
        },
        {
          "name": "_index",
          "type": "uint256"
        },
        {
          "name": "a",
          "type": "uint256[2]"
        },
        {
          "name": "a_p",
          "type": "uint256[2]"
        },
        {
          "name": "b",
          "type": "uint256[2][2]"
        },
        {
          "name": "b_p",
          "type": "uint256[2]"
        },
        {
          "name": "c",
          "type": "uint256[2]"
        },
        {
          "name": "c_p",
          "type": "uint256[2]"
        },
        {
          "name": "h",
          "type": "uint256[2]"
        },
        {
          "name": "k",
          "type": "uint256[2]"
        },
        {
          "name": "input",
          "type": "uint256[2]"
        }
      ],
      "name": "mintNewNFT",
      "outputs": [
        {
          "name": "",
          "type": "bool"
        }
      ],
      "payable": false,
      "stateMutability": "nonpayable",
      "type": "function",
      "signature": "0xc9831ab4"
    }
  ],
  "bytecode": "0x60806040523480156200001157600080fd5b5060405160208062003df3833981018060405260208110156200003357600080fd5b81019080805190602001909291905050506040805190810160405280600d81526020017f6f6d617220636f6e7472616374000000000000000000000000000000000000008152506040805190810160405280600281526020017f4f4d000000000000000000000000000000000000000000000000000000000000815250606060405190810160405280603f815260200162003db4603f9139336000806101000a81548173ffffffffffffffffffffffffffffffffffffffff021916908373ffffffffffffffffffffffffffffffffffffffff1602179055507f9736aeb40a8f30a5c076a9897428fdf7ec0e909c96dce63533664c9b5c835da633604051808273ffffffffffffffffffffffffffffffffffffffff1673ffffffffffffffffffffffffffffffffffffffff16815260200191505060405180910390a160008060146101000a81548160ff021916908315150217905550620001c56301ffc9a77c01000000000000000000000000000000000000000000000000000000000262000312640100000000026401000000009004565b620002026380ac58cd7c01000000000000000000000000000000000000000000000000000000000262000312640100000000026401000000009004565b6200023f63780e9d637c01000000000000000000000000000000000000000000000000000000000262000312640100000000026401000000009004565b82600f908051906020019062000257929190620003d0565b50816010908051906020019062000270929190620003d0565b50806011908051906020019062000289929190620003d0565b50620002c7635b5e139f7c01000000000000000000000000000000000000000000000000000000000262000312640100000000026401000000009004565b50505080601460006101000a81548173ffffffffffffffffffffffffffffffffffffffff021916908373ffffffffffffffffffffffffffffffffffffffff160217905550506200047f565b63ffffffff7c010000000000000000000000000000000000000000000000000000000002817bffffffffffffffffffffffffffffffffffffffffffffffffffffffff1916141515156200036457600080fd5b6001806000837bffffffffffffffffffffffffffffffffffffffffffffffffffffffff19167bffffffffffffffffffffffffffffffffffffffffffffffffffffffff1916815260200190815260200160002060006101000a81548160ff02191690831515021790555050565b828054600181600116156101000203166002900490600052602060002090601f016020900481019282601f106200041357805160ff191683800117855562000444565b8280016001018555821562000444579182015b828111156200044357825182559160200191906001019062000426565b5b50905062000453919062000457565b5090565b6200047c91905b80821115620004785760008160009055506001016200045e565b5090565b90565b613925806200048f6000396000f3fe608060405234801561001057600080fd5b5060043610610190576000357c0100000000000000000000000000000000000000000000000000000000900480636352211e116100fb578063b88d4fde116100b4578063d3fc98641161008e578063d3fc986414610df7578063d547cfb714610ef4578063e985e9c514610f77578063f2fde38b14610ff357610190565b8063b88d4fde14610963578063c87b56dd14610a68578063c9831ab414610b0f57610190565b80636352211e1461072857806370a0823114610796578063893d20e8146107ee57806395d89b4114610838578063a22cb465146108bb578063b3b720071461090b57610190565b806323b872dd1161014d57806323b872dd1461038757806327dc297e146103f55780632f745c59146104ba57806338bbfa501461051c57806342842e0e146106785780634f6ccce7146106e657610190565b806301ffc9a71461019557806306fdde03146101fa578063081812fc1461027d578063095ea7b3146102eb57806316c38b3c1461033957806318160ddd14610369575b600080fd5b6101e0600480360360208110156101ab57600080fd5b8101908080357bffffffffffffffffffffffffffffffffffffffffffffffffffffffff19169060200190929190505050611037565b604051808215151515815260200191505060405180910390f35b61020261109f565b6040518080602001828103825283818151815260200191508051906020019080838360005b83811015610242578082015181840152602081019050610227565b50505050905090810190601f16801561026f5780820380516001836020036101000a031916815260200191505b509250505060405180910390f35b6102a96004803603602081101561029357600080fd5b8101908080359060200190929190505050611141565b604051808273ffffffffffffffffffffffffffffffffffffffff1673ffffffffffffffffffffffffffffffffffffffff16815260200191505060405180910390f35b6103376004803603604081101561030157600080fd5b81019080803573ffffffffffffffffffffffffffffffffffffffff1690602001909291908035906020019092919050505061117e565b005b6103676004803603602081101561034f57600080fd5b810190808035151590602001909291905050506113ed565b005b6103716114b1565b6040518082815260200191505060405180910390f35b6103f36004803603606081101561039d57600080fd5b81019080803573ffffffffffffffffffffffffffffffffffffffff169060200190929190803573ffffffffffffffffffffffffffffffffffffffff169060200190929190803590602001909291905050506114be565b005b6104b86004803603604081101561040b57600080fd5b81019080803590602001909291908035906020019064010000000081111561043257600080fd5b82018360208201111561044457600080fd5b8035906020019184600183028401116401000000008311171561046657600080fd5b91908080601f016020809104026020016040519081016040528093929190818152602001838380828437600081840152601f19601f8201169050808301925050505050505091929192905050506114e3565b005b610506600480360360408110156104d057600080fd5b81019080803573ffffffffffffffffffffffffffffffffffffffff16906020019092919080359060200190929190505050611526565b6040518082815260200191505060405180910390f35b6106766004803603606081101561053257600080fd5b81019080803590602001909291908035906020019064010000000081111561055957600080fd5b82018360208201111561056b57600080fd5b8035906020019184600183028401116401000000008311171561058d57600080fd5b91908080601f016020809104026020016040519081016040528093929190818152602001838380828437600081840152601f19601f820116905080830192505050505050509192919290803590602001906401000000008111156105f057600080fd5b82018360208201111561060257600080fd5b8035906020019184600183028401116401000000008311171561062457600080fd5b91908080601f016020809104026020016040519081016040528093929190818152602001838380828437600081840152601f19601f82011690508083019250505050505050919291929050505061159d565b005b6106e46004803603606081101561068e57600080fd5b81019080803573ffffffffffffffffffffffffffffffffffffffff169060200190929190803573ffffffffffffffffffffffffffffffffffffffff169060200190929190803590602001909291905050506115a2565b005b610712600480360360208110156106fc57600080fd5b81019080803590602001909291905050506115c3565b6040518082815260200191505060405180910390f35b6107546004803603602081101561073e57600080fd5b81019080803590602001909291905050506115fb565b604051808273ffffffffffffffffffffffffffffffffffffffff1673ffffffffffffffffffffffffffffffffffffffff16815260200191505060405180910390f35b6107d8600480360360208110156107ac57600080fd5b81019080803573ffffffffffffffffffffffffffffffffffffffff169060200190929190505050611638565b6040518082815260200191505060405180910390f35b6107f6611688565b604051808273ffffffffffffffffffffffffffffffffffffffff1673ffffffffffffffffffffffffffffffffffffffff16815260200191505060405180910390f35b6108406116b1565b6040518080602001828103825283818151815260200191508051906020019080838360005b83811015610880578082015181840152602081019050610865565b50505050905090810190601f1680156108ad5780820380516001836020036101000a031916815260200191505b509250505060405180910390f35b610909600480360360408110156108d157600080fd5b81019080803573ffffffffffffffffffffffffffffffffffffffff169060200190929190803515159060200190929190505050611753565b005b6109616004803603606081101561092157600080fd5b8101908080359060200190929190803573ffffffffffffffffffffffffffffffffffffffff1690602001909291908035906020019092919050505061188f565b005b610a666004803603608081101561097957600080fd5b81019080803573ffffffffffffffffffffffffffffffffffffffff169060200190929190803573ffffffffffffffffffffffffffffffffffffffff16906020019092919080359060200190929190803590602001906401000000008111156109e057600080fd5b8201836020820111156109f257600080fd5b80359060200191846001830284011164010000000083111715610a1457600080fd5b91908080601f016020809104026020016040519081016040528093929190818152602001838380828437600081840152601f19601f820116905080830192505050505050509192919290505050611991565b005b610a9460048036036020811015610a7e57600080fd5b81019080803590602001909291905050506119b9565b6040518080602001828103825283818151815260200191508051906020019080838360005b83811015610ad4578082015181840152602081019050610ab9565b50505050905090810190601f168015610b015780820380516001836020036101000a031916815260200191505b509250505060405180910390f35b610ddd60048036036102c0811015610b2657600080fd5b81019080803573ffffffffffffffffffffffffffffffffffffffff1690602001909291908035906020019092919080604001906002806020026040519081016040528092919082600260200280828437600081840152601f19601f820116905080830192505050505050919291929080604001906002806020026040519081016040528092919082600260200280828437600081840152601f19601f82011690508083019250505050505091929192908060800190600280602002604051908101604052809291906000905b82821015610c46578382604002016002806020026040519081016040528092919082600260200280828437600081840152601f19601f82011690508083019250505050505081526020019060010190610bf2565b50505050919291929080604001906002806020026040519081016040528092919082600260200280828437600081840152601f19601f820116905080830192505050505050919291929080604001906002806020026040519081016040528092919082600260200280828437600081840152601f19601f820116905080830192505050505050919291929080604001906002806020026040519081016040528092919082600260200280828437600081840152601f19601f820116905080830192505050505050919291929080604001906002806020026040519081016040528092919082600260200280828437600081840152601f19601f820116905080830192505050505050919291929080604001906002806020026040519081016040528092919082600260200280828437600081840152601f19601f820116905080830192505050505050919291929080604001906002806020026040519081016040528092919082600260200280828437600081840152601f19601f8201169050808301925050505050509192919290505050611a82565b604051808215151515815260200191505060405180910390f35b610eda60048036036060811015610e0d57600080fd5b81019080803573ffffffffffffffffffffffffffffffffffffffff1690602001909291908035906020019092919080359060200190640100000000811115610e5457600080fd5b820183602082011115610e6657600080fd5b80359060200191846001830284011164010000000083111715610e8857600080fd5b91908080601f016020809104026020016040519081016040528093929190818152602001838380828437600081840152601f19601f820116905080830192505050505050509192919290505050612093565b604051808215151515815260200191505060405180910390f35b610efc61215a565b6040518080602001828103825283818151815260200191508051906020019080838360005b83811015610f3c578082015181840152602081019050610f21565b50505050905090810190601f168015610f695780820380516001836020036101000a031916815260200191505b509250505060405180910390f35b610fd960048036036040811015610f8d57600080fd5b81019080803573ffffffffffffffffffffffffffffffffffffffff169060200190929190803573ffffffffffffffffffffffffffffffffffffffff1690602001909291905050506121fc565b604051808215151515815260200191505060405180910390f35b6110356004803603602081101561100957600080fd5b81019080803573ffffffffffffffffffffffffffffffffffffffff169060200190929190505050612290565b005b600060016000837bffffffffffffffffffffffffffffffffffffffffffffffffffffffff19167bffffffffffffffffffffffffffffffffffffffffffffffffffffffff1916815260200190815260200160002060009054906101000a900460ff169050919050565b6060600f8054600181600116156101000203166002900480601f0160208091040260200160405190810160405280929190818152602001828054600181600116156101000203166002900480156111375780601f1061110c57610100808354040283529160200191611137565b820191906000526020600020905b81548152906001019060200180831161111a57829003601f168201915b5050505050905090565b60006003600083815260200190815260200160002060009054906101000a900473ffffffffffffffffffffffffffffffffffffffff169050919050565b6002600082815260200190815260200160002060009054906101000a900473ffffffffffffffffffffffffffffffffffffffff1673ffffffffffffffffffffffffffffffffffffffff168273ffffffffffffffffffffffffffffffffffffffff1614151515611238576040517f08c379a00000000000000000000000000000000000000000000000000000000081526004018080602001828103825260238152602001806138d76023913960400191505060405180910390fd5b611240611688565b73ffffffffffffffffffffffffffffffffffffffff163373ffffffffffffffffffffffffffffffffffffffff1614806112b257506112b16002600083815260200190815260200160002060009054906101000a900473ffffffffffffffffffffffffffffffffffffffff16336121fc565b5b1515611309576040517f08c379a000000000000000000000000000000000000000000000000000000000815260040180806020018281038252603481526020018061381d6034913960400191505060405180910390fd5b816003600083815260200190815260200160002060006101000a81548173ffffffffffffffffffffffffffffffffffffffff021916908373ffffffffffffffffffffffffffffffffffffffff160217905550808273ffffffffffffffffffffffffffffffffffffffff166002600084815260200190815260200160002060009054906101000a900473ffffffffffffffffffffffffffffffffffffffff1673ffffffffffffffffffffffffffffffffffffffff167f8c5be1e5ebec7d5bd14f71427d1e84f3dd0314c0f7b2291e5b200ac8c7c3b92560405160405180910390a45050565b6000809054906101000a900473ffffffffffffffffffffffffffffffffffffffff1673ffffffffffffffffffffffffffffffffffffffff163373ffffffffffffffffffffffffffffffffffffffff16141515611494576040517f08c379a000000000000000000000000000000000000000000000000000000000815260040180806020018281038252602a81526020018061387f602a913960400191505060405180910390fd5b80600060146101000a81548160ff02191690831515021790555050565b6000600880549050905090565b6114c83382612419565b15156114d357600080fd5b6114de8383836124ae565b505050565b611522828260006040519080825280601f01601f19166020018201604052801561151c5781602001600182028038833980820191505090505b5061159d565b5050565b600061153183611638565b8210151561153e57600080fd5b600660008473ffffffffffffffffffffffffffffffffffffffff1673ffffffffffffffffffffffffffffffffffffffff1681526020019081526020016000208281548110151561158a57fe5b9060005260206000200154905092915050565b505050565b6115be8383836020604051908101604052806000815250611991565b505050565b60006115cd6114b1565b821015156115da57600080fd5b6008828154811015156115e957fe5b90600052602060002001549050919050565b60006002600083815260200190815260200160002060009054906101000a900473ffffffffffffffffffffffffffffffffffffffff169050919050565b6000611681600460008473ffffffffffffffffffffffffffffffffffffffff1673ffffffffffffffffffffffffffffffffffffffff1681526020019081526020016000206124d2565b9050919050565b60008060009054906101000a900473ffffffffffffffffffffffffffffffffffffffff16905090565b606060108054600181600116156101000203166002900480601f0160208091040260200160405190810160405280929190818152602001828054600181600116156101000203166002900480156117495780601f1061171e57610100808354040283529160200191611749565b820191906000526020600020905b81548152906001019060200180831161172c57829003601f168201915b5050505050905090565b3373ffffffffffffffffffffffffffffffffffffffff168273ffffffffffffffffffffffffffffffffffffffff161415151561178e57600080fd5b80600560003373ffffffffffffffffffffffffffffffffffffffff1673ffffffffffffffffffffffffffffffffffffffff16815260200190815260200160002060008473ffffffffffffffffffffffffffffffffffffffff1673ffffffffffffffffffffffffffffffffffffffff16815260200190815260200160002060006101000a81548160ff0219169083151502179055508173ffffffffffffffffffffffffffffffffffffffff163373ffffffffffffffffffffffffffffffffffffffff167f17307eab39ab6107e8899845ad3d59bd9653f200f220920489ca2b5937696c3183604051808215151515815260200191505060405180910390a35050565b60408051908101604052808481526020018373ffffffffffffffffffffffffffffffffffffffff16815250601360008381526020019081526020016000206000820151816000015560208201518160010160006101000a81548173ffffffffffffffffffffffffffffffffffffffff021916908373ffffffffffffffffffffffffffffffffffffffff1602179055509050507f529aebee0fa53cdfb493ac455bd2a7b5924a502f5e34b85b84ebda0e84e62cb28383604051808381526020018273ffffffffffffffffffffffffffffffffffffffff1673ffffffffffffffffffffffffffffffffffffffff1681526020019250505060405180910390a1505050565b61199c8484846114be565b6119a8848484846124e0565b15156119b357600080fd5b50505050565b60606119c482612703565b15156119cf57600080fd5b601260008381526020019081526020016000208054600181600116156101000203166002900480601f016020809104026020016040519081016040528092919081815260200182805460018160011615610100020316600290048015611a765780601f10611a4b57610100808354040283529160200191611a76565b820191906000526020600020905b815481529060010190602001808311611a5957829003601f168201915b50505050509050919050565b6000808a8a8a8a8a8a8a8a8a604051602001808a600260200280838360005b83811015611abc578082015181840152602081019050611aa1565b5050505090500189600260200280838360005b83811015611aea578082015181840152602081019050611acf565b505050509050018860026000925b81841015611b3e5782846020020151600260200280838360005b83811015611b2d578082015181840152602081019050611b12565b505050509050019260010192611af8565b9250505087600260200280838360005b83811015611b69578082015181840152602081019050611b4e565b5050505090500186600260200280838360005b83811015611b97578082015181840152602081019050611b7c565b5050505090500185600260200280838360005b83811015611bc5578082015181840152602081019050611baa565b5050505090500184600260200280838360005b83811015611bf3578082015181840152602081019050611bd8565b5050505090500183600260200280838360005b83811015611c21578082015181840152602081019050611c06565b5050505090500182600260200280838360005b83811015611c4f578082015181840152602081019050611c34565b505050509050019950505050505050505050604051602081830303815290604052805190602001209050600073ffffffffffffffffffffffffffffffffffffffff166013600083815260200190815260200160002060010160009054906101000a900473ffffffffffffffffffffffffffffffffffffffff1673ffffffffffffffffffffffffffffffffffffffff16141515611d36576040517f08c379a000000000000000000000000000000000000000000000000000000000815260040180806020018281038252602e815260200180613851602e913960400191505060405180910390fd5b601460009054906101000a900473ffffffffffffffffffffffffffffffffffffffff1673ffffffffffffffffffffffffffffffffffffffff1663fe01ff628c8c8c8c8c8c8c8c8c6040518a63ffffffff167c0100000000000000000000000000000000000000000000000000000000028152600401808a600260200280838360005b83811015611dd3578082015181840152602081019050611db8565b5050505090500189600260200280838360005b83811015611e01578082015181840152602081019050611de6565b505050509050018860026000925b81841015611e555782846020020151600260200280838360005b83811015611e44578082015181840152602081019050611e29565b505050509050019260010192611e0f565b9250505087600260200280838360005b83811015611e80578082015181840152602081019050611e65565b5050505090500186600260200280838360005b83811015611eae578082015181840152602081019050611e93565b5050505090500185600260200280838360005b83811015611edc578082015181840152602081019050611ec1565b5050505090500184600260200280838360005b83811015611f0a578082015181840152602081019050611eef565b5050505090500183600260200280838360005b83811015611f38578082015181840152602081019050611f1d565b5050505090500182600260200280838360005b83811015611f66578082015181840152602081019050611f4b565b505050509050019950505050505050505050602060405180830381600087803b158015611f9257600080fd5b505af1158015611fa6573d6000803e3d6000fd5b505050506040513d6020811015611fbc57600080fd5b81019080805190602001909291905050501515612041576040517f08c379a00000000000000000000000000000000000000000000000000000000081526004018080602001828103825260188152602001807f736f6c7574696f6e206973206e6f74207665726966696564000000000000000081525060200191505060405180910390fd5b6120818d8d6040805190810160405280600381526020017f5552490000000000000000000000000000000000000000000000000000000000815250612093565b9150509b9a5050505050505050505050565b60008060009054906101000a900473ffffffffffffffffffffffffffffffffffffffff1673ffffffffffffffffffffffffffffffffffffffff163373ffffffffffffffffffffffffffffffffffffffff1614151561213c576040517f08c379a000000000000000000000000000000000000000000000000000000000815260040180806020018281038252602a81526020018061387f602a913960400191505060405180910390fd5b6121468484612775565b61214f83612796565b600190509392505050565b606060118054600181600116156101000203166002900480601f0160208091040260200160405190810160405280929190818152602001828054600181600116156101000203166002900480156121f25780601f106121c7576101008083540402835291602001916121f2565b820191906000526020600020905b8154815290600101906020018083116121d557829003601f168201915b5050505050905090565b6000600560008473ffffffffffffffffffffffffffffffffffffffff1673ffffffffffffffffffffffffffffffffffffffff16815260200190815260200160002060008373ffffffffffffffffffffffffffffffffffffffff1673ffffffffffffffffffffffffffffffffffffffff16815260200190815260200160002060009054906101000a900460ff16905092915050565b6000809054906101000a900473ffffffffffffffffffffffffffffffffffffffff1673ffffffffffffffffffffffffffffffffffffffff163373ffffffffffffffffffffffffffffffffffffffff16141515612337576040517f08c379a000000000000000000000000000000000000000000000000000000000815260040180806020018281038252602a81526020018061387f602a913960400191505060405180910390fd5b600073ffffffffffffffffffffffffffffffffffffffff168173ffffffffffffffffffffffffffffffffffffffff161415151561237357600080fd5b806000806101000a81548173ffffffffffffffffffffffffffffffffffffffff021916908373ffffffffffffffffffffffffffffffffffffffff1602179055507f9736aeb40a8f30a5c076a9897428fdf7ec0e909c96dce63533664c9b5c835da681604051808273ffffffffffffffffffffffffffffffffffffffff1673ffffffffffffffffffffffffffffffffffffffff16815260200191505060405180910390a150565b600080612425836115fb565b90508073ffffffffffffffffffffffffffffffffffffffff168473ffffffffffffffffffffffffffffffffffffffff16148061249457508373ffffffffffffffffffffffffffffffffffffffff1661247c84611141565b73ffffffffffffffffffffffffffffffffffffffff16145b806124a557506124a481856121fc565b5b91505092915050565b6124b98383836128e9565b6124c38382612b90565b6124cd8282612d34565b505050565b600081600001549050919050565b60006125018473ffffffffffffffffffffffffffffffffffffffff16612dfb565b151561251057600190506126fb565b60008473ffffffffffffffffffffffffffffffffffffffff1663150b7a02338887876040518563ffffffff167c0100000000000000000000000000000000000000000000000000000000028152600401808573ffffffffffffffffffffffffffffffffffffffff1673ffffffffffffffffffffffffffffffffffffffff1681526020018473ffffffffffffffffffffffffffffffffffffffff1673ffffffffffffffffffffffffffffffffffffffff16815260200183815260200180602001828103825283818151815260200191508051906020019080838360005b838110156126075780820151818401526020810190506125ec565b50505050905090810190601f1680156126345780820380516001836020036101000a031916815260200191505b5095505050505050602060405180830381600087803b15801561265657600080fd5b505af115801561266a573d6000803e3d6000fd5b505050506040513d602081101561268057600080fd5b8101908080519060200190929190505050905063150b7a027c0100000000000000000000000000000000000000000000000000000000027bffffffffffffffffffffffffffffffffffffffffffffffffffffffff1916817bffffffffffffffffffffffffffffffffffffffffffffffffffffffff1916149150505b949350505050565b6000806002600084815260200190815260200160002060009054906101000a900473ffffffffffffffffffffffffffffffffffffffff169050600073ffffffffffffffffffffffffffffffffffffffff168173ffffffffffffffffffffffffffffffffffffffff161415915050919050565b61277f8282612e0e565b6127898282612d34565b61279281613029565b5050565b61279f81612703565b1515612813576040517f08c379a00000000000000000000000000000000000000000000000000000000081526004018080602001828103825260168152602001807f746f6b656e20696420646f656e7327742065786973740000000000000000000081525060200191505060405180910390fd5b6128bf60118054600181600116156101000203166002900480601f0160208091040260200160405190810160405280929190818152602001828054600181600116156101000203166002900480156128ac5780601f10612881576101008083540402835291602001916128ac565b820191906000526020600020905b81548152906001019060200180831161288f57829003601f168201915b50505050506128ba83613075565b6131ce565b6012600083815260200190815260200160002090805190602001906128e592919061374b565b5050565b6002600082815260200190815260200160002060009054906101000a900473ffffffffffffffffffffffffffffffffffffffff1673ffffffffffffffffffffffffffffffffffffffff168373ffffffffffffffffffffffffffffffffffffffff161415156129a2576040517f08c379a000000000000000000000000000000000000000000000000000000000815260040180806020018281038252602e8152602001806138a9602e913960400191505060405180910390fd5b600073ffffffffffffffffffffffffffffffffffffffff168273ffffffffffffffffffffffffffffffffffffffff1614151515612a47576040517f08c379a000000000000000000000000000000000000000000000000000000000815260040180806020018281038252601b8152602001807f74686520746f2061646472657373206973206e6f742076616c6964000000000081525060200191505060405180910390fd5b612a5081613215565b612a97600460008473ffffffffffffffffffffffffffffffffffffffff1673ffffffffffffffffffffffffffffffffffffffff1681526020019081526020016000206132d5565b612ade600460008573ffffffffffffffffffffffffffffffffffffffff1673ffffffffffffffffffffffffffffffffffffffff1681526020019081526020016000206132eb565b816002600083815260200190815260200160002060006101000a81548173ffffffffffffffffffffffffffffffffffffffff021916908373ffffffffffffffffffffffffffffffffffffffff160217905550808273ffffffffffffffffffffffffffffffffffffffff168473ffffffffffffffffffffffffffffffffffffffff167fddf252ad1be2c89b69c2b068fc378daa952ba7f163c4a11628f55a4df523b3ef60405160405180910390a4505050565b6000612be86001600660008673ffffffffffffffffffffffffffffffffffffffff1673ffffffffffffffffffffffffffffffffffffffff1681526020019081526020016000208054905061330e90919063ffffffff16565b90506000600760008481526020019081526020016000205490508181141515612cdb576000600660008673ffffffffffffffffffffffffffffffffffffffff1673ffffffffffffffffffffffffffffffffffffffff16815260200190815260200160002083815481101515612c5957fe5b9060005260206000200154905080600660008773ffffffffffffffffffffffffffffffffffffffff1673ffffffffffffffffffffffffffffffffffffffff16815260200190815260200160002083815481101515612cb357fe5b9060005260206000200181905550816007600083815260200190815260200160002081905550505b600660008573ffffffffffffffffffffffffffffffffffffffff1673ffffffffffffffffffffffffffffffffffffffff168152602001908152602001600020805480919060019003612d2d91906137cb565b5050505050565b600660008373ffffffffffffffffffffffffffffffffffffffff1673ffffffffffffffffffffffffffffffffffffffff168152602001908152602001600020805490506007600083815260200190815260200160002081905550600660008373ffffffffffffffffffffffffffffffffffffffff1673ffffffffffffffffffffffffffffffffffffffff1681526020019081526020016000208190806001815401808255809150509060018203906000526020600020016000909192909190915055505050565b600080823b905060008111915050919050565b600073ffffffffffffffffffffffffffffffffffffffff168273ffffffffffffffffffffffffffffffffffffffff1614151515612eb3576040517f08c379a00000000000000000000000000000000000000000000000000000000081526004018080602001828103825260128152602001807f6164647265737320697320696e76616c6964000000000000000000000000000081525060200191505060405180910390fd5b612ebc81612703565b151515612f31576040517f08c379a00000000000000000000000000000000000000000000000000000000081526004018080602001828103825260158152602001807f746f6b656e496420616c7265616479206578697374000000000000000000000081525060200191505060405180910390fd5b816002600083815260200190815260200160002060006101000a81548173ffffffffffffffffffffffffffffffffffffffff021916908373ffffffffffffffffffffffffffffffffffffffff160217905550612fca600460008473ffffffffffffffffffffffffffffffffffffffff1673ffffffffffffffffffffffffffffffffffffffff1681526020019081526020016000206132d5565b808273ffffffffffffffffffffffffffffffffffffffff163373ffffffffffffffffffffffffffffffffffffffff167fddf252ad1be2c89b69c2b068fc378daa952ba7f163c4a11628f55a4df523b3ef60405160405180910390a45050565b6008805490506009600083815260200190815260200160002081905550600881908060018154018082558091505090600182039060005260206000200160009091929091909150555050565b606060008214156130bd576040805190810160405280600181526020017f300000000000000000000000000000000000000000000000000000000000000081525090506131c9565b600082905060005b6000821415156130eb578080600101915050600a828115156130e357fe5b0491506130c5565b6060816040519080825280601f01601f1916602001820160405280156131205781602001600182028038833980820191505090505b50905060006001830390505b6000861415156131c157600a8681151561314257fe5b066030017f01000000000000000000000000000000000000000000000000000000000000000282828060019003935081518110151561317d57fe5b9060200101907effffffffffffffffffffffffffffffffffffffffffffffffffffffffffffff1916908160001a905350600a868115156131b957fe5b04955061312c565b819450505050505b919050565b606061320d8383602060405190810160405280600081525060206040519081016040528060008152506020604051908101604052806000815250613330565b905092915050565b600073ffffffffffffffffffffffffffffffffffffffff166003600083815260200190815260200160002060009054906101000a900473ffffffffffffffffffffffffffffffffffffffff1673ffffffffffffffffffffffffffffffffffffffff161415156132d25760006003600083815260200190815260200160002060006101000a81548173ffffffffffffffffffffffffffffffffffffffff021916908373ffffffffffffffffffffffffffffffffffffffff1602179055505b50565b6001816000016000828254019250508190555050565b6133036001826000015461330e90919063ffffffff16565b816000018190555050565b600082821115151561331f57600080fd5b600082840390508091505092915050565b6060808690506060869050606086905060608690506060869050606081518351855187518951010101016040519080825280601f01601f19166020018201604052801561338c5781602001600182028038833980820191505090505b509050606081905060008090506000809050600090505b88518110156134565788818151811015156133ba57fe5b9060200101517f010000000000000000000000000000000000000000000000000000000000000090047f010000000000000000000000000000000000000000000000000000000000000002838380600101945081518110151561341957fe5b9060200101907effffffffffffffffffffffffffffffffffffffffffffffffffffffffffffff1916908160001a90535080806001019150506133a3565b600090505b875181101561350e57878181518110151561347257fe5b9060200101517f010000000000000000000000000000000000000000000000000000000000000090047f01000000000000000000000000000000000000000000000000000000000000000283838060010194508151811015156134d157fe5b9060200101907effffffffffffffffffffffffffffffffffffffffffffffffffffffffffffff1916908160001a905350808060010191505061345b565b600090505b86518110156135c657868181518110151561352a57fe5b9060200101517f010000000000000000000000000000000000000000000000000000000000000090047f010000000000000000000000000000000000000000000000000000000000000002838380600101945081518110151561358957fe5b9060200101907effffffffffffffffffffffffffffffffffffffffffffffffffffffffffffff1916908160001a9053508080600101915050613513565b600090505b855181101561367e5785818151811015156135e257fe5b9060200101517f010000000000000000000000000000000000000000000000000000000000000090047f010000000000000000000000000000000000000000000000000000000000000002838380600101945081518110151561364157fe5b9060200101907effffffffffffffffffffffffffffffffffffffffffffffffffffffffffffff1916908160001a90535080806001019150506135cb565b600090505b845181101561373657848181518110151561369a57fe5b9060200101517f010000000000000000000000000000000000000000000000000000000000000090047f01000000000000000000000000000000000000000000000000000000000000000283838060010194508151811015156136f957fe5b9060200101907effffffffffffffffffffffffffffffffffffffffffffffffffffffffffffff1916908160001a9053508080600101915050613683565b82995050505050505050505095945050505050565b828054600181600116156101000203166002900490600052602060002090601f016020900481019282601f1061378c57805160ff19168380011785556137ba565b828001600101855582156137ba579182015b828111156137b957825182559160200191906001019061379e565b5b5090506137c791906137f7565b5090565b8154818355818111156137f2578183600052602060002091820191016137f191906137f7565b5b505050565b61381991905b808211156138155760008160009055506001016137fd565b5090565b9056fe6d73672e73656e646572206973206e6f742074686520636f6e7472616374206f776e6572206f72206e6f7420617070726f766564736f6c7574696f6e206973206e6f7420756e6971756520697420616c7265616479206578697374206265666f72656f6e6c7920636f6e7472616374206f776e65722063616e2063616c6c20746869732066756e6374696f6e7468652066726f6d2061646472657373206973206e6f7420746865206f776e6572206f662074686520746f6b656e796f752063616e206e6f7420617070726f766520796f7572206f776e20746f6b656e73a165627a7a7230582032be05df988baf27c0a9606a55bc6f902ecb99d9a226dc0572dada82c0ddafa6002968747470733a2f2f73332d75732d776573742d322e616d617a6f6e6177732e636f6d2f756461636974792d626c6f636b636861696e2f63617073746f6e652f",
  "source": "pragma solidity >=0.4.21 <0.6.0;\n\n// TODO define a contract call to the zokrates generated solidity contract <Verifier> or <renamedVerifier>\n\nimport \"./verifier.sol\";\nimport \"./ERC721Mintable.sol\";\n\n// TODO define another contract named SolnSquareVerifier that inherits from your ERC721Mintable class\n\ncontract SolnSquareVerifier is omarContract {\n\n// TODO define a solutions struct that can hold an index & an address\nstruct solution {\n    uint256 index;\n    address solAddress;\n}\n// TODO define an array of the above struct\n// no need to use the array as stated here https://medium.com/@andresaaap/capstone-real-estate-marketplace-project-faq-udacity-blockchain-69fe13b4c14e\n\n// TODO define a mapping to store unique solutions submitted\n\nmapping(bytes32 => solution) private solutions;\n\n// TODO Create an event to emit when a solution is added\n\nevent solutionAdded(uint256 index,address solAddress);\n\n// TODO Create a function to add the solutions to the array and emit the event\n\nfunction addSolution (uint256 _index ,address _solAddress, bytes32 _solHash) public{\n    solutions[_solHash] = solution({\n        index: _index ,\n        solAddress: _solAddress\n    });\n    emit solutionAdded(_index,_solAddress);\n}\nVerifier verifierContract;\nconstructor(address verifierContractAddress) public{\n    verifierContract = Verifier(verifierContractAddress);\n}\n// TODO Create a function to mint new NFT only after the solution has been verified\n\n//  - make sure you handle metadata as well as tokenSuplly\nfunction mintNewNFT\n                    (\n                    address _address , \n                    uint256 _index,\n                    uint[2] memory a,\n                    uint[2] memory a_p,\n                    uint[2][2] memory b,\n                    uint[2] memory b_p,\n                    uint[2] memory c,\n                    uint[2] memory c_p,\n                    uint[2] memory h,\n                    uint[2] memory k,\n                    uint[2] memory input\n                    ) public returns(bool){\n\n                    bytes32 solHash = keccak256(abi.encodePacked(a, a_p, b, b_p, c, c_p, h, k, input));\n                    //  - make sure the solution is unique (has not been used before)\n                    require(solutions[solHash].solAddress == address(0), \"solution is not unique it already exist before\");\n                    require(verifierContract.verifyTx(a, a_p, b, b_p, c, c_p, h, k, input), \"solution is not verified\");     \n                    return super.mint(_address, _index, \"URI\");\n\n                    }\n}\n\n\n  \n\n\n\n\n\n\n\n\n\n\n\n\n\n\n\n\n\n\n\n\n\n\n\n\n\n\n",
  "sourcePath": "/Users/Ayman/Documents/GitHub/blockchain-nd-project10-capstone/Blockchain-Capstone-master/eth-contracts/contracts/SolnSquareVerifier.sol",
  "compiler": {
    "name": "solc",
    "version": "0.5.2+commit.1df8f40c.Emscripten.clang"
  },
  "schemaVersion": "3.0.8",
  "updatedAt": "2019-05-02T12:39:36.460Z",
  "devdoc": {
    "methods": {
      "isApprovedForAll(address,address)": {
        "details": "Tells whether an operator is approved by a given owner",
        "params": {
          "operator": "operator address which you want to query the approval of",
          "owner": "owner address which you want to query the approval of"
        },
        "return": "bool whether the given operator is approved by the given owner"
      },
      "setApprovalForAll(address,bool)": {
        "details": "Sets or unsets the approval of a given operator An operator is allowed to transfer all tokens of the sender on their behalf",
        "params": {
          "approved": "representing the status of the approval to be set",
          "to": "operator address to set the approval"
        }
      },
      "supportsInterface(bytes4)": {
        "details": "implement supportsInterface(bytes4) using a lookup table"
      },
      "tokenByIndex(uint256)": {
        "details": "Gets the token ID at a given index of all the tokens in this contract Reverts if the index is greater or equal to the total number of tokens",
        "params": {
          "index": "uint256 representing the index to be accessed of the tokens list"
        },
        "return": "uint256 token ID at the given index of the tokens list"
      },
      "tokenOfOwnerByIndex(address,uint256)": {
        "details": "Gets the token ID at a given index of the tokens list of the requested owner",
        "params": {
          "index": "uint256 representing the index to be accessed of the requested tokens list",
          "owner": "address owning the tokens list to be accessed"
        },
        "return": "uint256 token ID at the given index of the tokens list owned by the requested address"
      },
      "totalSupply()": {
        "details": "Gets the total amount of tokens stored by the contract",
        "return": "uint256 representing the total amount of tokens"
      }
    }
  },
  "userdoc": {
    "methods": {}
  }
}